{
  "abi": [
    {
      "inputs": [
        {
          "internalType": "uint256",
          "name": "x",
          "type": "uint256"
        },
        {
          "internalType": "uint256",
          "name": "k",
          "type": "uint256"
        }
      ],
      "name": "mimc5",
      "outputs": [
        {
          "internalType": "uint256",
          "name": "hash",
          "type": "uint256"
        }
      ],
      "stateMutability": "view",
      "type": "function"
    }
  ],
  "bytecode": {
    "object": "0x610260604052600060808181527f2f7771f6265a50ce20b67fe1ab73031d96427493d866e6f583e9ad459a76e6e460a0527f6f334233eb6946d726d43125c08e9128a86a06a3fbbc0f3b260da0c1ba202c4b60c0527feae99adcd955593711362ebcf301f6a277764edd177495043621b5a0f4e1b79d60e0527f249dd2e1934f8fcd1d2304e3e2b20040e1d84aa7454712166e2e8b29bd79a37c610100527f7eb26d0859974e9a1d18ae8bd97d37f1a50329a0ccf2437a00d95daee630b900610120527ff08ab79146bc3ba90f33972ebb69974cc916ca42e6791ac765b33b2859318f2c610140527f732b064b89e20f365cd5e3ca11c6c0cc52f431f209470ecf5b4edd4e463ecc05610160527f0a4683924011532c00ff23cf7995c96a8e79dd5ea259f4844ed31687a63175bf610180527f2b998fe28235993e8a8641a2491caa3d1c34648d777f90e693232e38b0fc2c416101a0527a05ffecb75f8f3267e6c59e0ba4add3f384c0bfc7463745f4d982846101c0527a034d09e1e3fe2dc9bf951479cf523b8526196335a5fce370d091cd6101e0527a1501fd913c15862bd4d7413a436551a8d3c14cd930e3538f85b672610200527a07a304959e8fb2025d1d5722d2e7d9012a3e5f6a2ed9411de09150610220527a069b974780d6393995d4398d54f5965a0f0572f0cd4510f7be1d4b610240526102029190600f610215565b5034801561020f57600080fd5b50610268565b82600f8101928215610243579160200282015b82811115610243578251825591602001919060010190610228565b5061024f929150610253565b5090565b5b8082111561024f5760008155600101610254565b6101c3806102776000396000f3fe608060405234801561001057600080fd5b506004361061002b5760003560e01c8063e6cf0f4414610030575b600080fd5b61004361003e36600461010e565b610055565b60405190815260200160405180910390f35b600082818080805b600f8110156100f05760008051602061016e833981519152878608935060008051602061016e833981519152600082600f811061009c5761009c610130565b01548508935060008051602061016e833981519152848509925060008051602061016e833981519152838409915060008051602061016e8339815191528483099450806100e881610146565b91505061005d565b5060008051602061016e833981519152868508979650505050505050565b6000806040838503121561012157600080fd5b50508035926020909101359150565b634e487b7160e01b600052603260045260246000fd5b60006001820161016657634e487b7160e01b600052601160045260246000fd5b506001019056fe30644e72e131a029b85045b68181585d2833e84879b9709143e1f593f0000001a2646970667358221220d0f1476a3b48f5b767927e7c5a9380d1b492016c7c3c4d58119462cff66d384764736f6c63430008130033",
    "linkReferences": {}
  },
  "methodIdentifiers": {
    "mimc5(uint256,uint256)": "e6cf0f44"
  },
  "id": 21
}